{
  "_format": "hh-sol-artifact-1",
  "contractName": "Factory",
  "sourceName": "contracts/Factory.sol",
  "abi": [
    {
      "anonymous": false,
      "inputs": [
        {
          "indexed": false,
          "internalType": "address",
          "name": "newAddress",
          "type": "address"
        }
      ],
      "name": "ContractCreated",
      "type": "event"
    },
    {
      "inputs": [
        {
          "internalType": "address",
          "name": "_passenger",
          "type": "address"
        },
        {
          "internalType": "uint256",
          "name": "_amountPayable",
          "type": "uint256"
        },
        {
          "internalType": "uint256",
          "name": "_arbitrationFee",
          "type": "uint256"
        },
        {
          "internalType": "address",
          "name": "_tokenAddress",
          "type": "address"
        }
      ],
      "name": "createNew",
      "outputs": [
        {
          "internalType": "address",
          "name": "",
          "type": "address"
        }
      ],
      "stateMutability": "nonpayable",
      "type": "function"
    },
    {
      "inputs": [
        {
          "internalType": "uint256",
          "name": "",
          "type": "uint256"
        }
      ],
      "name": "deployedContracts",
      "outputs": [
        {
          "internalType": "contract POT",
          "name": "",
          "type": "address"
        }
      ],
      "stateMutability": "view",
      "type": "function"
    },
    {
      "inputs": [],
      "name": "lastContractAddress",
      "outputs": [
        {
          "internalType": "address",
          "name": "",
          "type": "address"
        }
      ],
      "stateMutability": "view",
      "type": "function"
    }
  ],
  "bytecode": "0x608060405234801561001057600080fd5b506001600081905550612a98806100286000396000f3fe60806040523480156200001157600080fd5b5060043610620000465760003560e01c806332709738146200004b5780639ad1ee10146200006d578063a10afe4214620000a3575b600080fd5b62000055620000d9565b604051620000649190620003fb565b60405180910390f35b6200008b60048036038101906200008591906200036f565b620000ff565b6040516200009a919062000475565b60405180910390f35b620000c16004803603810190620000bb9190620002fd565b6200013f565b604051620000d09190620003fb565b60405180910390f35b600260009054906101000a900473ffffffffffffffffffffffffffffffffffffffff1681565b600181815481106200011057600080fd5b906000526020600020016000915054906101000a900473ffffffffffffffffffffffffffffffffffffffff1681565b60008084118015620001515750600083115b62000193576040517f08c379a00000000000000000000000000000000000000000000000000000000081526004016200018a9062000492565b60405180910390fd5b60003386868686604051620001a890620002c1565b620001b895949392919062000418565b604051809103906000f080158015620001d5573d6000803e3d6000fd5b5090506001819080600181540180825580915050600190039060005260206000200160009091909190916101000a81548173ffffffffffffffffffffffffffffffffffffffff021916908373ffffffffffffffffffffffffffffffffffffffff16021790555080600260006101000a81548173ffffffffffffffffffffffffffffffffffffffff021916908373ffffffffffffffffffffffffffffffffffffffff1602179055507fcf78cf0d6f3d8371e1075c69c492ab4ec5d8cf23a1a239b6a51a1d00be7ca31281604051620002ad9190620003fb565b60405180910390a180915050949350505050565b61249b80620005c883390190565b600081359050620002e08162000593565b92915050565b600081359050620002f781620005ad565b92915050565b600080600080608085870312156200031a57620003196200053f565b5b60006200032a87828801620002cf565b94505060206200033d87828801620002e6565b93505060406200035087828801620002e6565b92505060606200036387828801620002cf565b91505092959194509250565b6000602082840312156200038857620003876200053f565b5b60006200039884828501620002e6565b91505092915050565b620003ac81620004c5565b82525050565b620003bd8162000503565b82525050565b6000620003d2603b83620004b4565b9150620003df8262000544565b604082019050919050565b620003f581620004f9565b82525050565b6000602082019050620004126000830184620003a1565b92915050565b600060a0820190506200042f6000830188620003a1565b6200043e6020830187620003a1565b6200044d6040830186620003ea565b6200045c6060830185620003ea565b6200046b6080830184620003a1565b9695505050505050565b60006020820190506200048c6000830184620003b2565b92915050565b60006020820190508181036000830152620004ad81620003c3565b9050919050565b600082825260208201905092915050565b6000620004d282620004d9565b9050919050565b600073ffffffffffffffffffffffffffffffffffffffff82169050919050565b6000819050919050565b6000620005108262000517565b9050919050565b600062000524826200052b565b9050919050565b60006200053882620004d9565b9050919050565b600080fd5b7f416d6f756e742070617961626c6520616e64206172626974726174696f6e206660008201527f65652073686f756c642062652067726561746572207468616e20300000000000602082015250565b6200059e81620004c5565b8114620005aa57600080fd5b50565b620005b881620004f9565b8114620005c457600080fd5b5056fe60806040526000600a60006101000a81548160ff0219169083151502179055506000600a60016101000a81548160ff0219169083151502179055506000600a60026101000a81548160ff0219169083151502179055506000600a60036101000a81548160ff0219169083151502179055506000600a60046101000a81548160ff0219169083151502179055506000600a60056101000a81548160ff0219169083151502179055506000600a60066101000a81548160ff0219169083151502179055506000600a60076101000a81548160ff0219169083151502179055506000600a60086101000a81548160ff0219169083151502179055503480156200010457600080fd5b506040516200249b3803806200249b83398181016040528101906200012a91906200027d565b600160008190555084600560006101000a81548173ffffffffffffffffffffffffffffffffffffffff021916908373ffffffffffffffffffffffffffffffffffffffff16021790555083600360006101000a81548173ffffffffffffffffffffffffffffffffffffffff021916908373ffffffffffffffffffffffffffffffffffffffff160217905550826008819055508160098190555080600660006101000a81548173ffffffffffffffffffffffffffffffffffffffff021916908373ffffffffffffffffffffffffffffffffffffffff16021790555080600760006101000a81548173ffffffffffffffffffffffffffffffffffffffff021916908373ffffffffffffffffffffffffffffffffffffffff16021790555050505050506200037c565b600081519050620002608162000348565b92915050565b600081519050620002778162000362565b92915050565b600080600080600060a086880312156200029c576200029b62000343565b5b6000620002ac888289016200024f565b9550506020620002bf888289016200024f565b9450506040620002d28882890162000266565b9350506060620002e58882890162000266565b9250506080620002f8888289016200024f565b9150509295509295909350565b6000620003128262000319565b9050919050565b600073ffffffffffffffffffffffffffffffffffffffff82169050919050565b6000819050919050565b600080fd5b620003538162000305565b81146200035f57600080fd5b50565b6200036d8162000339565b81146200037957600080fd5b50565b61210f806200038c6000396000f3fe608060405234801561001057600080fd5b506004361061018e5760003560e01c80639369b2b7116100de578063bc3694fb11610097578063e6ded30a11610071578063e6ded30a146103d3578063fbc23dc0146103dd578063fc0c546a146103e7578063fc7750db146104055761018e565b8063bc3694fb1461037b578063bccdcbd114610397578063c11ae86f146103b55761018e565b80639369b2b7146102db5780639d76ea58146102f9578063a868a33114610317578063aeea1f7b14610335578063afe010431461033f578063b097734b1461035d5761018e565b80634ea4a0141161014b5780636cc6cde1116101255780636cc6cde1146102655780636ecc5d6214610283578063790c494c146102a15780638124dcbe146102bf5761018e565b80634ea4a0141461021f578063509457b61461022957806369634cc1146102475761018e565b80631cfa7ba8146101935780631dc51028146101b1578063234c2c4d146101bb57806334dc96c5146101d95780633b37f8ae146101f757806349dd203a14610215575b600080fd5b61019b610423565b6040516101a89190611c9d565b60405180910390f35b6101b9610429565b005b6101c3610602565b6040516101d09190611aec565b60405180910390f35b6101e1610615565b6040516101ee9190611c9d565b60405180910390f35b6101ff61061b565b60405161020c9190611aec565b60405180910390f35b61021d61062e565b005b6102276107db565b005b61023161095f565b60405161023e9190611aec565b60405180910390f35b61024f610972565b60405161025c9190611aec565b60405180910390f35b61026d610985565b60405161027a9190611a71565b60405180910390f35b61028b6109ab565b6040516102989190611a71565b60405180910390f35b6102a96109d1565b6040516102b69190611aec565b60405180910390f35b6102d960048036038101906102d4919061181e565b6109e4565b005b6102e3610b1e565b6040516102f09190611aec565b60405180910390f35b610301610b31565b60405161030e9190611a71565b60405180910390f35b61031f610b57565b60405161032c9190611c9d565b60405180910390f35b61033d610b5d565b005b610347610c7e565b6040516103549190611b22565b60405180910390f35b610365610c91565b6040516103729190611c9d565b60405180910390f35b61039560048036038101906103909190611878565b610c97565b005b61039f610ef7565b6040516103ac9190611aec565b60405180910390f35b6103bd610f0a565b6040516103ca9190611a71565b60405180910390f35b6103db610f30565b005b6103e56110b7565b005b6103ef61132c565b6040516103fc9190611b07565b60405180910390f35b61040d611352565b60405161041a9190611aec565b60405180910390f35b60095481565b600360009054906101000a900473ffffffffffffffffffffffffffffffffffffffff1673ffffffffffffffffffffffffffffffffffffffff163373ffffffffffffffffffffffffffffffffffffffff16146104b9576040517f08c379a00000000000000000000000000000000000000000000000000000000081526004016104b090611c1d565b60405180910390fd5b600160028111156104cd576104cc611df1565b5b600a60099054906101000a900460ff1660028111156104ef576104ee611df1565b5b1480156105085750600a60009054906101000a900460ff165b610547576040517f08c379a000000000000000000000000000000000000000000000000000000000815260040161053e90611c7d565b60405180910390fd5b600a60059054906101000a900460ff1615610597576040517f08c379a000000000000000000000000000000000000000000000000000000000815260040161058e90611b5d565b60405180910390fd5b6001600a60056101000a81548160ff0219169083151502179055506001600a60046101000a81548160ff0219169083151502179055506002600a60096101000a81548160ff021916908360028111156105f3576105f2611df1565b5b0217905550610600611365565b565b600a60039054906101000a900460ff1681565b60085481565b600a60009054906101000a900460ff1681565b600560009054906101000a900473ffffffffffffffffffffffffffffffffffffffff1673ffffffffffffffffffffffffffffffffffffffff163373ffffffffffffffffffffffffffffffffffffffff16146106be576040517f08c379a00000000000000000000000000000000000000000000000000000000081526004016106b590611c5d565b60405180910390fd5b600a60019054906101000a900460ff166106d757600080fd5b6000600a60016101000a81548160ff02191690831515021790555060006009546008546107049190611cc9565b9050600760009054906101000a900473ffffffffffffffffffffffffffffffffffffffff1673ffffffffffffffffffffffffffffffffffffffff1663a9059cbb600360009054906101000a900473ffffffffffffffffffffffffffffffffffffffff16836040518363ffffffff1660e01b8152600401610785929190611ac3565b602060405180830381600087803b15801561079f57600080fd5b505af11580156107b3573d6000803e3d6000fd5b505050506040513d601f19601f820116820180604052508101906107d7919061184b565b5050565b600460009054906101000a900473ffffffffffffffffffffffffffffffffffffffff1673ffffffffffffffffffffffffffffffffffffffff163373ffffffffffffffffffffffffffffffffffffffff161461086b576040517f08c379a000000000000000000000000000000000000000000000000000000000815260040161086290611bbd565b60405180910390fd5b6001600281111561087f5761087e611df1565b5b600a60099054906101000a900460ff1660028111156108a1576108a0611df1565b5b1480156108ba5750600a60009054906101000a900460ff165b6108f9576040517f08c379a00000000000000000000000000000000000000000000000000000000081526004016108f090611b9d565b60405180910390fd5b6001600a60066101000a81548160ff021916908315150217905550600a60079054906101000a900460ff1615610955576002600a60096101000a81548160ff0219169083600281111561094f5761094e611df1565b5b02179055505b61095d611365565b565b600a60059054906101000a900460ff1681565b600a60029054906101000a900460ff1681565b600560009054906101000a900473ffffffffffffffffffffffffffffffffffffffff1681565b600460009054906101000a900473ffffffffffffffffffffffffffffffffffffffff1681565b600a60019054906101000a900460ff1681565b80600460006101000a81548173ffffffffffffffffffffffffffffffffffffffff021916908373ffffffffffffffffffffffffffffffffffffffff16021790555060006002811115610a3957610a38611df1565b5b600a60099054906101000a900460ff166002811115610a5b57610a5a611df1565b5b148015610a745750600a60019054906101000a900460ff165b610ab3576040517f08c379a0000000000000000000000000000000000000000000000000000000008152600401610aaa90611b7d565b60405180910390fd5b6001600a60096101000a81548160ff02191690836002811115610ad957610ad8611df1565b5b02179055506001600a60026101000a81548160ff0219169083151502179055506001600a60006101000a81548160ff0219169083151502179055504260018190555050565b600a60069054906101000a900460ff1681565b600660009054906101000a900473ffffffffffffffffffffffffffffffffffffffff1681565b60025481565b600154600254610b6d9190611cc9565b4211610b7857600080fd5b600360009054906101000a900473ffffffffffffffffffffffffffffffffffffffff1673ffffffffffffffffffffffffffffffffffffffff166108fc6009549081150290604051600060405180830381858888f19350505050158015610be2573d6000803e3d6000fd5b506000600854600954610bf59190611cc9565b9050600460009054906101000a900473ffffffffffffffffffffffffffffffffffffffff1673ffffffffffffffffffffffffffffffffffffffff166108fc829081150290604051600060405180830381858888f19350505050158015610c5f573d6000803e3d6000fd5b506001600a60046101000a81548160ff02191690831515021790555050565b600a60099054906101000a900460ff1681565b60015481565b600360009054906101000a900473ffffffffffffffffffffffffffffffffffffffff1673ffffffffffffffffffffffffffffffffffffffff163373ffffffffffffffffffffffffffffffffffffffff1614610d27576040517f08c379a0000000000000000000000000000000000000000000000000000000008152600401610d1e90611c1d565b60405180910390fd5b600a60029054906101000a900460ff1615610d77576040517f08c379a0000000000000000000000000000000000000000000000000000000008152600401610d6e90611bfd565b60405180910390fd5b600a60019054906101000a900460ff1615610dc7576040517f08c379a0000000000000000000000000000000000000000000000000000000008152600401610dbe90611c3d565b60405180910390fd5b600954600854610dd79190611cc9565b8114610e18576040517f08c379a0000000000000000000000000000000000000000000000000000000008152600401610e0f90611b3d565b60405180910390fd5b600760009054906101000a900473ffffffffffffffffffffffffffffffffffffffff1673ffffffffffffffffffffffffffffffffffffffff166323b872dd3330600954600854610e689190611cc9565b6040518463ffffffff1660e01b8152600401610e8693929190611a8c565b602060405180830381600087803b158015610ea057600080fd5b505af1158015610eb4573d6000803e3d6000fd5b505050506040513d601f19601f82011682018060405250810190610ed8919061184b565b506001600a60016101000a81548160ff02191690831515021790555050565b600a60079054906101000a900460ff1681565b600360009054906101000a900473ffffffffffffffffffffffffffffffffffffffff1681565b600560009054906101000a900473ffffffffffffffffffffffffffffffffffffffff1673ffffffffffffffffffffffffffffffffffffffff163373ffffffffffffffffffffffffffffffffffffffff1614610fc0576040517f08c379a0000000000000000000000000000000000000000000000000000000008152600401610fb790611c5d565b60405180910390fd5b60016002811115610fd457610fd3611df1565b5b600a60099054906101000a900460ff166002811115610ff657610ff5611df1565b5b14611036576040517f08c379a000000000000000000000000000000000000000000000000000000000815260040161102d90611b9d565b60405180910390fd5b6001600a60076101000a81548160ff0219169083151502179055506001600a60046101000a81548160ff021916908315150217905550600a60069054906101000a900460ff16156110ad576002600a60096101000a81548160ff021916908360028111156110a7576110a6611df1565b5b02179055505b6110b5611365565b565b600560009054906101000a900473ffffffffffffffffffffffffffffffffffffffff1673ffffffffffffffffffffffffffffffffffffffff163373ffffffffffffffffffffffffffffffffffffffff1614611147576040517f08c379a000000000000000000000000000000000000000000000000000000000815260040161113e90611c5d565b60405180910390fd5b60011515600a60039054906101000a900460ff1615151461116757600080fd5b600760009054906101000a900473ffffffffffffffffffffffffffffffffffffffff1673ffffffffffffffffffffffffffffffffffffffff1663a9059cbb600560009054906101000a900473ffffffffffffffffffffffffffffffffffffffff166009546040518363ffffffff1660e01b81526004016111e8929190611ac3565b602060405180830381600087803b15801561120257600080fd5b505af1158015611216573d6000803e3d6000fd5b505050506040513d601f19601f8201168201806040525081019061123a919061184b565b50600760009054906101000a900473ffffffffffffffffffffffffffffffffffffffff1673ffffffffffffffffffffffffffffffffffffffff1663a9059cbb600460009054906101000a900473ffffffffffffffffffffffffffffffffffffffff166008546040518363ffffffff1660e01b81526004016112bc929190611ac3565b602060405180830381600087803b1580156112d657600080fd5b505af11580156112ea573d6000803e3d6000fd5b505050506040513d601f19601f8201168201806040525081019061130e919061184b565b506001600a60046101000a81548160ff021916908315150217905550565b600760009054906101000a900473ffffffffffffffffffffffffffffffffffffffff1681565b600a60049054906101000a900460ff1681565b600a60089054906101000a900460ff1615801561138e5750600a60019054906101000a900460ff165b6113cd576040517f08c379a00000000000000000000000000000000000000000000000000000000081526004016113c490611bdd565b60405180910390fd5b6002808111156113e0576113df611df1565b5b600a60099054906101000a900460ff16600281111561140257611401611df1565b5b14801561141b5750600a60059054906101000a900460ff165b156115c957600760009054906101000a900473ffffffffffffffffffffffffffffffffffffffff1673ffffffffffffffffffffffffffffffffffffffff1663a9059cbb600460009054906101000a900473ffffffffffffffffffffffffffffffffffffffff166008546040518363ffffffff1660e01b81526004016114a1929190611ac3565b602060405180830381600087803b1580156114bb57600080fd5b505af11580156114cf573d6000803e3d6000fd5b505050506040513d601f19601f820116820180604052508101906114f3919061184b565b50600760009054906101000a900473ffffffffffffffffffffffffffffffffffffffff1673ffffffffffffffffffffffffffffffffffffffff1663a9059cbb600560009054906101000a900473ffffffffffffffffffffffffffffffffffffffff166009546040518363ffffffff1660e01b8152600401611575929190611ac3565b602060405180830381600087803b15801561158f57600080fd5b505af11580156115a3573d6000803e3d6000fd5b505050506040513d601f19601f820116820180604052508101906115c7919061184b565b505b6002808111156115dc576115db611df1565b5b600a60099054906101000a900460ff1660028111156115fe576115fd611df1565b5b1480156116175750600a60069054906101000a900460ff165b801561162f5750600a60079054906101000a900460ff165b156117dd57600760009054906101000a900473ffffffffffffffffffffffffffffffffffffffff1673ffffffffffffffffffffffffffffffffffffffff1663a9059cbb600460009054906101000a900473ffffffffffffffffffffffffffffffffffffffff166008546040518363ffffffff1660e01b81526004016116b5929190611ac3565b602060405180830381600087803b1580156116cf57600080fd5b505af11580156116e3573d6000803e3d6000fd5b505050506040513d601f19601f82011682018060405250810190611707919061184b565b50600760009054906101000a900473ffffffffffffffffffffffffffffffffffffffff1673ffffffffffffffffffffffffffffffffffffffff1663a9059cbb600560009054906101000a900473ffffffffffffffffffffffffffffffffffffffff166009546040518363ffffffff1660e01b8152600401611789929190611ac3565b602060405180830381600087803b1580156117a357600080fd5b505af11580156117b7573d6000803e3d6000fd5b505050506040513d601f19601f820116820180604052508101906117db919061184b565b505b565b6000813590506117ee81612094565b92915050565b600081519050611803816120ab565b92915050565b600081359050611818816120c2565b92915050565b60006020828403121561183457611833611e20565b5b6000611842848285016117df565b91505092915050565b60006020828403121561186157611860611e20565b5b600061186f848285016117f4565b91505092915050565b60006020828403121561188e5761188d611e20565b5b600061189c84828501611809565b91505092915050565b6118ae81611d1f565b82525050565b6118bd81611d31565b82525050565b6118cc81611d7a565b82525050565b6118db81611d8c565b82525050565b60006118ee600e83611cb8565b91506118f982611e25565b602082019050919050565b6000611911601a83611cb8565b915061191c82611e4e565b602082019050919050565b6000611934600c83611cb8565b915061193f82611e77565b602082019050919050565b6000611957601783611cb8565b915061196282611ea0565b602082019050919050565b600061197a602083611cb8565b915061198582611ec9565b602082019050919050565b600061199d601583611cb8565b91506119a882611ef2565b602082019050919050565b60006119c0601a83611cb8565b91506119cb82611f1b565b602082019050919050565b60006119e3602383611cb8565b91506119ee82611f44565b604082019050919050565b6000611a06602783611cb8565b9150611a1182611f93565b604082019050919050565b6000611a29602483611cb8565b9150611a3482611fe2565b604082019050919050565b6000611a4c602483611cb8565b9150611a5782612031565b604082019050919050565b611a6b81611d70565b82525050565b6000602082019050611a8660008301846118a5565b92915050565b6000606082019050611aa160008301866118a5565b611aae60208301856118a5565b611abb6040830184611a62565b949350505050565b6000604082019050611ad860008301856118a5565b611ae56020830184611a62565b9392505050565b6000602082019050611b0160008301846118b4565b92915050565b6000602082019050611b1c60008301846118c3565b92915050565b6000602082019050611b3760008301846118d2565b92915050565b60006020820190508181036000830152611b56816118e1565b9050919050565b60006020820190508181036000830152611b7681611904565b9050919050565b60006020820190508181036000830152611b9681611927565b9050919050565b60006020820190508181036000830152611bb68161194a565b9050919050565b60006020820190508181036000830152611bd68161196d565b9050919050565b60006020820190508181036000830152611bf681611990565b9050919050565b60006020820190508181036000830152611c16816119b3565b9050919050565b60006020820190508181036000830152611c36816119d6565b9050919050565b60006020820190508181036000830152611c56816119f9565b9050919050565b60006020820190508181036000830152611c7681611a1c565b9050919050565b60006020820190508181036000830152611c9681611a3f565b9050919050565b6000602082019050611cb26000830184611a62565b92915050565b600082825260208201905092915050565b6000611cd482611d70565b9150611cdf83611d70565b9250827fffffffffffffffffffffffffffffffffffffffffffffffffffffffffffffffff03821115611d1457611d13611dc2565b5b828201905092915050565b6000611d2a82611d50565b9050919050565b60008115159050919050565b6000819050611d4b82612080565b919050565b600073ffffffffffffffffffffffffffffffffffffffff82169050919050565b6000819050919050565b6000611d8582611d9e565b9050919050565b6000611d9782611d3d565b9050919050565b6000611da982611db0565b9050919050565b6000611dbb82611d50565b9050919050565b7f4e487b7100000000000000000000000000000000000000000000000000000000600052601160045260246000fd5b7f4e487b7100000000000000000000000000000000000000000000000000000000600052602160045260246000fd5b600080fd5b7f496e76616c696420616d6f756e74000000000000000000000000000000000000600082015250565b7f416c726561647920636f6e6669726d65642064656c6976657279000000000000600082015250565b7f416c726561647920706169640000000000000000000000000000000000000000600082015250565b7f43616e6e6f7420636f6e6669726d2064656c6976657279000000000000000000600082015250565b7f4f6e6c79206472697665722063616e2063616c6c2074686973206d6574686f64600082015250565b7f5472697020616c72656164792066696e69736865640000000000000000000000600082015250565b7f436f6e747261637420616c726561647920616374697661746564000000000000600082015250565b7f4f6e6c792070617373656e6765722063616e2063616c6c2074686973206d657460008201527f686f640000000000000000000000000000000000000000000000000000000000602082015250565b7f436f6e747261637420616c72656164792061637469766174656420627920706160008201527f7373656e67657200000000000000000000000000000000000000000000000000602082015250565b7f4f6e6c792061726269747261746f722063616e2063616c6c2074686973206d6560008201527f74686f6400000000000000000000000000000000000000000000000000000000602082015250565b7f44656c6976657279206e6f7420636f6e6669726d65642062792064726976657260008201527f2079657400000000000000000000000000000000000000000000000000000000602082015250565b6003811061209157612090611df1565b5b50565b61209d81611d1f565b81146120a857600080fd5b50565b6120b481611d31565b81146120bf57600080fd5b50565b6120cb81611d70565b81146120d657600080fd5b5056fea2646970667358221220db4158d3516d0d4b4f4ef25c0ef35a304f8a4a871264d6d14876386f5bc4bb7d64736f6c63430008070033a2646970667358221220112998d0aa1a81f7ee650fe58d5a125fca6654765176ef84a677e4313b30f98d64736f6c63430008070033",
  "linkReferences": {},
  "deployedLinkReferences": {}
}